{
  "_format": "hh-sol-artifact-1",
  "contractName": "JobPortal",
  "sourceName": "contracts/JobPortal.sol",
  "abi": [
    {
      "inputs": [],
      "stateMutability": "nonpayable",
      "type": "constructor"
    },
    {
      "anonymous": false,
      "inputs": [
        {
          "indexed": true,
          "internalType": "uint256",
          "name": "Id",
          "type": "uint256"
        },
        {
          "indexed": true,
          "internalType": "string",
          "name": "name",
          "type": "string"
        },
        {
          "indexed": false,
          "internalType": "string",
          "name": "skills",
          "type": "string"
        }
      ],
      "name": "ApplicantAdded",
      "type": "event"
    },
    {
      "inputs": [
        {
          "internalType": "uint256",
          "name": "_id",
          "type": "uint256"
        },
        {
          "internalType": "string",
          "name": "name",
          "type": "string"
        },
        {
          "internalType": "uint256",
          "name": "experience",
          "type": "uint256"
        },
        {
          "internalType": "string",
          "name": "skills",
          "type": "string"
        }
      ],
      "name": "addApplicant",
      "outputs": [],
      "stateMutability": "nonpayable",
      "type": "function"
    },
    {
      "inputs": [
        {
          "internalType": "uint256",
          "name": "",
          "type": "uint256"
        }
      ],
      "name": "applicants",
      "outputs": [
        {
          "internalType": "uint256",
          "name": "id",
          "type": "uint256"
        },
        {
          "internalType": "string",
          "name": "name",
          "type": "string"
        },
        {
          "internalType": "uint256",
          "name": "experience",
          "type": "uint256"
        },
        {
          "internalType": "string",
          "name": "skills",
          "type": "string"
        }
      ],
      "stateMutability": "view",
      "type": "function"
    },
    {
      "inputs": [
        {
          "internalType": "uint256",
          "name": "",
          "type": "uint256"
        },
        {
          "internalType": "uint256",
          "name": "",
          "type": "uint256"
        }
      ],
      "name": "applied",
      "outputs": [
        {
          "internalType": "uint256",
          "name": "",
          "type": "uint256"
        }
      ],
      "stateMutability": "view",
      "type": "function"
    },
    {
      "inputs": [],
      "name": "i_owner",
      "outputs": [
        {
          "internalType": "address",
          "name": "",
          "type": "address"
        }
      ],
      "stateMutability": "view",
      "type": "function"
    },
    {
      "inputs": [
        {
          "internalType": "uint256",
          "name": "",
          "type": "uint256"
        }
      ],
      "name": "jobs",
      "outputs": [
        {
          "internalType": "uint256",
          "name": "id",
          "type": "uint256"
        },
        {
          "internalType": "string",
          "name": "jobTitle",
          "type": "string"
        },
        {
          "internalType": "string",
          "name": "skills",
          "type": "string"
        }
      ],
      "stateMutability": "view",
      "type": "function"
    },
    {
      "inputs": [
        {
          "internalType": "uint256",
          "name": "",
          "type": "uint256"
        }
      ],
      "name": "ratings",
      "outputs": [
        {
          "internalType": "uint256",
          "name": "",
          "type": "uint256"
        }
      ],
      "stateMutability": "view",
      "type": "function"
    }
  ],
  "bytecode": "0x60a060405234801561001057600080fd5b503373ffffffffffffffffffffffffffffffffffffffff1660808173ffffffffffffffffffffffffffffffffffffffff1681525050608051610dd9610067600039600081816103fa01526105890152610dd96000f3fe608060405234801561001057600080fd5b50600436106100625760003560e01c8063180aedf3146100675780635d30e84d1461009957806363de5323146100c95780638fa20cf6146100fc578063b6ed3c3b14610118578063dba6335f14610148575b600080fd5b610081600480360381019061007c91906105f5565b610166565b604051610090939291906106c1565b60405180910390f35b6100b360048036038101906100ae91906105f5565b6102a0565b6040516100c09190610706565b60405180910390f35b6100e360048036038101906100de91906105f5565b6102b8565b6040516100f39493929190610721565b60405180910390f35b610116600480360381019061011191906108a9565b6103f8565b005b610132600480360381019061012d9190610948565b610556565b60405161013f9190610706565b60405180910390f35b610150610587565b60405161015d91906109c9565b60405180910390f35b600160205280600052604060002060009150905080600001549080600101805461018f90610a13565b80601f01602080910402602001604051908101604052809291908181526020018280546101bb90610a13565b80156102085780601f106101dd57610100808354040283529160200191610208565b820191906000526020600020905b8154815290600101906020018083116101eb57829003601f168201915b50505050509080600201805461021d90610a13565b80601f016020809104026020016040519081016040528092919081815260200182805461024990610a13565b80156102965780601f1061026b57610100808354040283529160200191610296565b820191906000526020600020905b81548152906001019060200180831161027957829003601f168201915b5050505050905083565b60036020528060005260406000206000915090505481565b60006020528060005260406000206000915090508060000154908060010180546102e190610a13565b80601f016020809104026020016040519081016040528092919081815260200182805461030d90610a13565b801561035a5780601f1061032f5761010080835404028352916020019161035a565b820191906000526020600020905b81548152906001019060200180831161033d57829003601f168201915b50505050509080600201549080600301805461037590610a13565b80601f01602080910402602001604051908101604052809291908181526020018280546103a190610a13565b80156103ee5780601f106103c3576101008083540402835291602001916103ee565b820191906000526020600020905b8154815290600101906020018083116103d157829003601f168201915b5050505050905084565b7f000000000000000000000000000000000000000000000000000000000000000073ffffffffffffffffffffffffffffffffffffffff163373ffffffffffffffffffffffffffffffffffffffff1614610486576040517f08c379a000000000000000000000000000000000000000000000000000000000815260040161047d90610a90565b60405180910390fd5b60006040518060800160405280868152602001858152602001848152602001838152509050806000808781526020019081526020016000206000820151816000015560208201518160010190816104dd9190610c5c565b506040820151816002015560608201518160030190816104fd9190610c5c565b509050508360405161050f9190610d6a565b6040518091039020857fed6583ec22ce5d5fd8d7546c548fdd4022fab9317915a2ffea6652a904d6630b846040516105479190610d81565b60405180910390a35050505050565b6002602052816000526040600020818154811061057257600080fd5b90600052602060002001600091509150505481565b7f000000000000000000000000000000000000000000000000000000000000000081565b6000604051905090565b600080fd5b600080fd5b6000819050919050565b6105d2816105bf565b81146105dd57600080fd5b50565b6000813590506105ef816105c9565b92915050565b60006020828403121561060b5761060a6105b5565b5b6000610619848285016105e0565b91505092915050565b61062b816105bf565b82525050565b600081519050919050565b600082825260208201905092915050565b60005b8381101561066b578082015181840152602081019050610650565b60008484015250505050565b6000601f19601f8301169050919050565b600061069382610631565b61069d818561063c565b93506106ad81856020860161064d565b6106b681610677565b840191505092915050565b60006060820190506106d66000830186610622565b81810360208301526106e88185610688565b905081810360408301526106fc8184610688565b9050949350505050565b600060208201905061071b6000830184610622565b92915050565b60006080820190506107366000830187610622565b81810360208301526107488186610688565b90506107576040830185610622565b81810360608301526107698184610688565b905095945050505050565b600080fd5b600080fd5b7f4e487b7100000000000000000000000000000000000000000000000000000000600052604160045260246000fd5b6107b682610677565b810181811067ffffffffffffffff821117156107d5576107d461077e565b5b80604052505050565b60006107e86105ab565b90506107f482826107ad565b919050565b600067ffffffffffffffff8211156108145761081361077e565b5b61081d82610677565b9050602081019050919050565b82818337600083830152505050565b600061084c610847846107f9565b6107de565b90508281526020810184848401111561086857610867610779565b5b61087384828561082a565b509392505050565b600082601f8301126108905761088f610774565b5b81356108a0848260208601610839565b91505092915050565b600080600080608085870312156108c3576108c26105b5565b5b60006108d1878288016105e0565b945050602085013567ffffffffffffffff8111156108f2576108f16105ba565b5b6108fe8782880161087b565b935050604061090f878288016105e0565b925050606085013567ffffffffffffffff8111156109305761092f6105ba565b5b61093c8782880161087b565b91505092959194509250565b6000806040838503121561095f5761095e6105b5565b5b600061096d858286016105e0565b925050602061097e858286016105e0565b9150509250929050565b600073ffffffffffffffffffffffffffffffffffffffff82169050919050565b60006109b382610988565b9050919050565b6109c3816109a8565b82525050565b60006020820190506109de60008301846109ba565b92915050565b7f4e487b7100000000000000000000000000000000000000000000000000000000600052602260045260246000fd5b60006002820490506001821680610a2b57607f821691505b602082108103610a3e57610a3d6109e4565b5b50919050565b7f596f7520617265206e6f74207468652041646d696e0000000000000000000000600082015250565b6000610a7a60158361063c565b9150610a8582610a44565b602082019050919050565b60006020820190508181036000830152610aa981610a6d565b9050919050565b60008190508160005260206000209050919050565b60006020601f8301049050919050565b600082821b905092915050565b600060088302610b127fffffffffffffffffffffffffffffffffffffffffffffffffffffffffffffffff82610ad5565b610b1c8683610ad5565b95508019841693508086168417925050509392505050565b6000819050919050565b6000610b59610b54610b4f846105bf565b610b34565b6105bf565b9050919050565b6000819050919050565b610b7383610b3e565b610b87610b7f82610b60565b848454610ae2565b825550505050565b600090565b610b9c610b8f565b610ba7818484610b6a565b505050565b5b81811015610bcb57610bc0600082610b94565b600181019050610bad565b5050565b601f821115610c1057610be181610ab0565b610bea84610ac5565b81016020851015610bf9578190505b610c0d610c0585610ac5565b830182610bac565b50505b505050565b600082821c905092915050565b6000610c3360001984600802610c15565b1980831691505092915050565b6000610c4c8383610c22565b9150826002028217905092915050565b610c6582610631565b67ffffffffffffffff811115610c7e57610c7d61077e565b5b610c888254610a13565b610c93828285610bcf565b600060209050601f831160018114610cc65760008415610cb4578287015190505b610cbe8582610c40565b865550610d26565b601f198416610cd486610ab0565b60005b82811015610cfc57848901518255600182019150602085019450602081019050610cd7565b86831015610d195784890151610d15601f891682610c22565b8355505b6001600288020188555050505b505050505050565b600081905092915050565b6000610d4482610631565b610d4e8185610d2e565b9350610d5e81856020860161064d565b80840191505092915050565b6000610d768284610d39565b915081905092915050565b60006020820190508181036000830152610d9b8184610688565b90509291505056fea2646970667358221220c6b72a3e5096a7e8f469a0fcc15284133f96a8246ff112578d96130c499393d964736f6c63430008110033",
  "linkReferences": {},
  "deployedLinkReferences": {}
}